:020000040800F2
:1000000000600020FD8D00084D8E00084D8E000818
:1000100000000000000000000000000000000000E0
:100020000000000000000000000000004D8E0008ED
:1000300000000000000000004D8E00087F50000806
:100040004D8E00084D8E00084D8E00084D8E000824
:100050004D8E0008455100085551000865510008B3
:10006000B51800084D8E00084D8E00084D8E000812
:100070004D8E0008E94500080146000809460008C1
:10008000214600080000000000000000394600087A
:100090000000000051460008694600080D8D000868
:1000A000258D00084D8E00084D8E00084D8E0008ED
:1000B0004D8E00080000000000000000000000005D
:1000C00002B4714649084900095649008E4402BCF1
:1000D0007047C04602B4714649084900095C4900AE
:1000E0008E4402BC7047C04603B4714649084000C4
:1000F0004900095A49008E4403BC70470022430856
:100100008B4274D303098B425FD3030A8B4244D3DF
:10011000030B8B4228D3030C8B420DD3FF22090221
:1001200012BA030C8B4202D31212090265D0030BE0
:100130008B4219D300E0090AC30B8B4201D3CB03D6
:10014000C01A5241830B8B4201D38B03C01A524118
:10015000430B8B4201D34B03C01A5241030B8B421A
:1001600001D30B03C01A5241C30A8B4201D3CB0205
:10017000C01A5241830A8B4201D38B02C01A5241EA
:10018000430A8B4201D34B02C01A5241030A8B42ED
:1001900001D30B02C01A5241CDD2C3098B4201D305
:1001A000CB01C01A524183098B4201D38B01C01A83
:1001B000524143098B4201D34B01C01A52410309FA
:1001C0008B4201D30B01C01A5241C3088B4201D3A9
:1001D000CB00C01A524183088B4201D38B00C01A56
:1001E000524143088B4201D34B00C01A5241411A7D
:1001F00000D20146524110467047FFE701B500208A
:1002000000F006F802BDC0460029F7D076E7704737
:100210007047C04602780B78002A03D001300131C4
:100220009A42F7D0D01A70470023C25C0133002AEB
:10023000FBD1581E7047000003B4714649084000C6
:100240004900095E49008E4403BC704710B5064C56
:100250002378002B07D1054B002B02D0044800E087
:1002600000BF0123237010BD240200200000000005
:1002700074A50008044B10B5002B03D003490448B3
:1002800000E000BF10BDC0460000000028020020B2
:1002900074A5000813B56B460268D971073354681A
:1002A00019000122A04716BD10B5024800F0BCF8A5
:1002B00010BDC04638050020F7B50E001700150028
:1002C000002D18D000F06CFD002814D00B4B180046
:1002D000019300F0A9F80400A84200D92C00002CDA
:1002E000F0D031002200019800F0C4F82D1B36191F
:1002F00000F078FDE4E7781BFEBDC046380500201D
:1003000010B5024800F03FF910BDC046720400204D
:1003100010B5044800F054F9040000F09BFD2000E3
:1003200010BDC04672040020F7B506000F0015008E
:1003300094B208F065FEF060220039000A4800F02F
:1003400088F9019000F086FD019BE41AA4B2FF1821
:10035000002C07D008F054FEF368C01AB368984226
:10036000EAD32D1B2800FEBD72040020F0B587B033
:10037000050017001C0002919EB208F041FEE860E3
:100380000E2302AA9B1802993A0000930E483300EC
:1003900000F097F9039000F05DFD02ABDB89F61ADF
:1003A000FF18039BB6B2002B03D0A41B200007B09C
:1003B000F0BD002EFAD008F023FEEB68C01AAB683F
:1003C0009842DDD3F1E7C0467204002010B5024820
:1003D00000F01FF910BDC0467204002010B503489C
:1003E00000F034F80028FADC10BDC04638050020C3
:1003F000014B1878C0B27047710400200022044BF2
:100400005A60FA2292009A60024A1A607047C04607
:100410004002002094A500080200002382328030B0
:1004200013800380704700000300803082331B88F4
:100430000088181A044B7F30184004D580230138F7
:100440005B421843013070477F00008002000300C8
:100450008032108882331B888030C01A044B1840C9
:1004600004D5802301385B42184301307047C046F1
:100470007F000080F7B507000500802601918037D6
:100480003B8838881400F61A2818964207D832009C
:10049000019909F0C6F92800019BA21B991909F0DE
:1004A000C0F97F223B881B1913403B80F7BD030036
:1004B000020030B5803382321D881488A5420AD3E9
:1004C0001B8814881B1B9BB20B80010084310B809E
:1004D0001388C01830BD80231488F3E702008232ED
:1004E0008430138801885B187F210B40138070478C
:1004F00002000023C2321380023A1380C430C0339A
:100500000380704713B503006946C2331B88063168
:100510009BB20B800300C03302001C880888844211
:1005200016D318887F2805D91888802805D108880F
:10053000002802D01888101811E0098800204029EE
:100540000DD914001988C43489B221801880F1E7CC
:1005500018880C88010040310020A142EAD316BD62
:100560000300C0331A88C430521892B21A80198816
:100570000288914201D3C02202801A88BF2A01D981
:1005800000221A807047030013B5C0331B8801AAEC
:100590009BB2138003006946C4331B8806319BB2AB
:1005A0000B80C230048813889C4203D813880088CB
:1005B000181A16BD0B88118802885818801AF8E797
:1005C000030037B5C0331B8801A99BB20B80030021
:1005D0006A46C4331B8806329BB213800300C233C1
:1005E0001D881488A54201D100241C801C8809881C
:1005F0008C420BD01C88611C89B219801988128822
:10060000005D914201D300221A803EBD012040428C
:10061000FBE7030013B5C0331B8801AA9BB213800C
:1006200003006946C4331B8806319BB20B8003006C
:10063000C2331C8809888C4201D300211980198893
:100640001288914202D01B88C05C16BD0120404236
:10065000FBE7F7B5060033006C46C0330800198885
:1006600001AB89B219803100A51D3400C43109885D
:10067000C23489B22980278829888F4201D300217A
:100680002180278819888F4219D81B8821885B1AF6
:100690009BB21F1C934200D9171C2188BFB23A009D
:1006A000711809F0BEF82388DB199BB223802288D9
:1006B0002B889A4201D3002323803800FEBD2B886B
:1006C000E4E7F0B5040085B00192C034248803AE9D
:1006D000A4B234800400C434248802ADA4B2EC80F7
:1006E0000400C23427880635BC462F88BC4501D398
:1006F000002727802788BC463788BC451CD8368809
:100700002788F61BB6B2371C9E4200D91F1C060074
:10071000C236BBB23788C719002086B2B3420DD8A3
:100720000A9A138022889B189BB2238022882B88E8
:100730009A421CD2002014E02E88E1E73A5C8A42FB
:1007400011D123880133F3189BB2238002AB063307
:1007500022881B889A4201D30023238001200A9B10
:100760001E8005B0F0BD019E32540130D5E7002354
:100770002380DFE7B523B0229B00C35892009B0083
:10078000C31870B59C580320002C09D004329B5824
:10079000002B04D08025AD00605DFF2801D1002032
:1007A00070BD044A9B682100A25C9847FF236355F3
:1007B000F5E7C046010200000A23038000487047A5
:1007C00004010020F8B5124D83210700280000F035
:1007D00000FD01210600280000F0FBFC822104003E
:1007E000280000F0F6FC002E01D01023B371002C7D
:1007F00003D04023237100236371002803D04023DA
:10080000037100234371432328003B80F8BDC04699
:1008100000000020F8B5124D83210700280000F0E9
:10082000D8FC01210600280000F0D3FC822104003E
:10083000280000F0CEFC002E01D01023B371002C54
:1008400003D04023237100236371002803D0402389
:10085000037100234371432328003B80F8BDC04649
:1008600044000020F8B5124D83210700280000F055
:10087000B0FC01210600280000F0ABFC822104003E
:10088000280000F0A6FC002E01D01023B371002C2C
:1008900003D00023237102336371002803D00023A7
:1008A000037102334371432328003B80F8BDC046E7
:1008B0008800002070B5B526B60083590400B03317
:1008C0009B001D580320002D11D0200001F080F85E
:1008D000832381229B00E850E918A3599200B0338A
:1008E0009B00E4186368A858DB689847002070BD37
:1008F000B2239B00F7B5C2580C33C3580E009B00BF
:10090000C3180193B02301999B00CF580400032022
:10091000002F16D00F23142533405D436519A869B5
:1009200000280FD028214B43D318596AFFF76CFCDD
:100930000A1E07D10B00A9612000310001F038F830
:100940000020FEBD852300229B00FA50019AB0339F
:10095000D3581B69002BF3D08422822092008000A0
:10096000B918385832009847EAE70000B523B0229A
:10097000F0B59B00C35885B09B00C31892009E58E9
:1009800002AA0D00511D0022040002A8871D0A7052
:100990003A80964259D02A789446602260461040A8
:1009A00001906046104233D0019A202A49D1EA884A
:1009B0006878002A25D0614649B2002910DAB121B1
:1009C00089005B5831009B689847EB881A1C072BFD
:1009D00000D90722310092B2200000F098FE0DE00D
:1009E00080239B00F054131C402A00D940239AB264
:1009F0001A4B31002000F25400F09FFE002005B099
:100A0000F0BDB12189005B5829009B689847F5E744
:100A100068780B2815D8FFF753FB06F1141414144B
:100A2000141414140E1AA7239B00E35C032B08D1A3
:100A300002223900D0E7A7239B00E35C0122032BAD
:100A4000CAD02900200000F037FE0320D7E7A723F3
:100A50009B00E35C032BD1D0F3E7C046010200000A
:100A600070B50400822100F070FF230000254C3394
:100A700001211D80200000F068FFBC23B5265B002B
:100A8000E5528321200000F060FFB022B600A35998
:100A900025669B00E31892009A58AA420BD0B12217
:100AA00092009B585B689847A359B0339B001D5137
:100AB000AF239B00E550002070BD00008722F8B5F1
:100AC000304D040000212800920008F070FDB5238D
:100AD0009B00E3582600B0339B001D51AF239B00C1
:100AE000E550237C4C36002B40D1802382219B0093
:100AF0000222200000F01EFF0121802331809B0094
:100B00000222200000F016FFBC2301265B00E65203
:100B10002300102262331A8083210D3A082320001B
:100B200000F008FF230060331E80812300279B0014
:100B3000EF50D033E358B0339B00E3185B681B6879
:100B4000984785239B00EF500433EF50143BEA583D
:100B50000220BA4209D0237CBB4211D180239B00E2
:100B60003100200000F02CFF0020F8BD402382213E
:100B70000222200000F0DEFE012140233180BFE789
:100B80004023EDE75002002003000320002907D096
:100B9000B522002092009A58B03292009B185960FA
:100BA0007047B5239B00C358B0339B001B580320EC
:100BB000002B06D08220800019508421002089005B
:100BC0005A507047B5239B00C358B0339B001B5845
:100BD0000320002B03D081220020920099507047FF
:100BE000B5239B00C35810B5B0339B001A5803239C
:100BF000002A11D0852189005458023B002C0BD1CA
:100C0000535084239B00D3580C39525887390364BE
:100C1000FF3900F0CDFE2300180010BDB5239B0066
:100C2000C35810B5B0339B001A580323002A0BD0C9
:100C300081239B00D258037C002B07D180239B008B
:100C4000012100F0BDFE0023180010BD4023F7E78E
:100C5000B5239B00C35810B5B0339B001A5803232B
:100C6000002A05D0002301211A0000F0A9FE00236C
:100C7000180010BD00207047212817D0222828D046
:100C8000202811D14B780A781B0213438A7812046A
:100C90001A43CB781B061343194A13600B7913715F
:100CA0004B7953718B79937100207047144B1A68FC
:100CB0000A701A68120A4A701A68120C8A701A6846
:100CC000120ECA701A790A715A794A719B798B711E
:100CD000EAE70C4A4B88107801211A00002800D15D
:100CE0000A000A4008490A700A78002A02D0002146
:100CF000064A1160064A9B07DB0F1370D4E7C04613
:100D0000100100202D010020710400206C0400203F
:100D10007004002010B50A48FFF77EFB094C200044
:100D2000FFF7E6FB0122084B20001A70FFF7EAFBF1
:100D3000064B01001800FFF745FF002010BDC0461C
:100D400038050020720400202C010020C00500207E
:100D500070B50E4D2A78002A17D10D4C0D49200090
:100D600000F0AEF8002810D120000B4900F0C3F8C5
:100D700000280AD120000949FFF706FF002804D106
:100D8000200000F0D3F801232B7070BDBE050020B9
:100D9000C005002060010020CC00002018010020C8
:100DA00070B5A7250C4B0D4E1C68AD00002C06D16C
:100DB000735D032B0BD000200123184070BD00F0A1
:100DC000F5FE735D032BF6D1001B0228F3D8044B0C
:100DD0001878C0B2F0E7C0466C040020C0050020BF
:100DE00071040020AF2337B50F4C9B00E258A83B9D
:100DF000D358002B16D16B460C48991DFFF757FBB3
:100E00006B46DB880500002B0CD000F0CFFE084BB2
:100E1000290018606B462000DA88FFF7C2FE200028
:100E2000FFF7DEFE37BDC046C005002038050020B4
:100E30006C04002010B50024044B05481C60FFF72B
:100E40004DFBFFF7CFFF200010BDC0466C04002013
:100E50003805002070B50B4D2B78002B01D00020F9
:100E600070BD0948FFF74EFB011EF8D001242C701D
:100E7000064D2800FFF7A6FE2800FFF7CFFE200052
:100E8000EEE7C0462C01002072040020C0050020BF
:100E9000096810B5074889B2FFF762FB0022064BCC
:100EA0001A70FFF7D7FF002802D10448FFF7D0FEE1
:100EB000002010BD720400202C010020C00500207D
:100EC000030010B50320002B14D0AE240020A40092
:100ED00018510C3418510C341851814202D0AD20F5
:100EE00080001950A72101208900585418001A7059
:100EF00000F0E8FC10BD13B56B460400981D0023FC
:100F00000380033300290FD0AE239B00E150CB6A4E
:100F1000002B03D09847B4239B00E050B6229200E8
:100F2000A3580133A3500023180016BD10B500F0DC
:100F3000F9FC10BDAE239B00C25810B5131E02D0A1
:100F4000136898470300180010BDAE239B00C358D8
:100F500010B55B689847002800D0032010BD000042
:100F6000164B70B5C5180400280000F091FBA523AE
:100F700001229B00E2501C33E25A183BE2500F4B17
:100F8000E15C1F230B40012B08D0022B0BD0002B60
:100F90000ED12900200000F03BF970BD290020008F
:100FA00000F098FAF9E72900200000F0C7FAF4E70A
:100FB0007F232000994300F0D0FCEEE7AA02000056
:100FC00070B50400100000292AD1A5239B00E35826
:100FD000032B0FD125005535FF35AB68EA689342E6
:100FE0000AD99B1AAB609A4200D91A00010020006E
:100FF00000F0B3FB002070BDA7239B00E35C032B34
:101000000AD1AE239B00E3581B69002B04D0B52204
:1010100092002000A1509847200000F0A6FBE9E7CD
:10102000A7239B00E35C032BE4D1AE239B00E35892
:101030009B69002BDED0B52200209200A05020003A
:101040009847D8E770B50D0004001100002D44D179
:10105000A5239B00C358022B0DD1C369026A93429A
:1010600012D99A1AC26100F060FB2B002A002900F5
:10107000200000F0A5FCA8239B00E25C002A01D020
:101080000022E254002070BD93420DD18269934248
:101090000AD8A626B60083599A4205D22A0029000A
:1010A00000F043FBA551E0E7A7239B00E35C032B83
:1010B0000BD1AE239B00E358DB68002B05D0B52293
:1010C000002192002000A15098478021200000F0CC
:1010D00044FC200000F055FBCDE7A7239B00C35C38
:1010E000032BCFD1AE239B00C3585B69002BC9D023
:1010F000B52200219200815029009847C3E7F8B536
:10110000A723012200219B00C254083BC150103389
:101110004160C150043BC1541833C35804008B4292
:1011200018D10026002240231100200000F002FC0C
:10113000B22301275B00E75223004025FC335D66A4
:1011400000222B008021200000F0F4FB3000A78457
:101150002562F8BD5B68002BE3D098470028E0D0FB
:101160000326DFE70174002070470000A7239B00DF
:10117000C25C042A03D0C25C0349D2B242540422A6
:10118000C25400207047C0469D020000A722920072
:10119000835C042B03D1034BC35CDBB2835400207C
:1011A0007047C0469D020000A72310B59B00C35C9A
:1011B000032B08D1AE239B00C358002B03D0DB695F
:1011C000002B00D09847002010BD00207047002061
:1011D000704710B5C278837812021A4303789A4296
:1011E00001D8002010BD04780019E31844789BB2A0
:1011F000052CF4D184788C42F1D1F3E710B50400CA
:10120000802100F0AAFB0021200000F0A6FB10BD09
:10121000F7B560220B780D001340190092182039A1
:101220000400114212D0002B00D09CE068780928FD
:1012300000D998E0FEF758FF13013A0197002A0100
:101240009700890016009700FE00AB00B5239B00B5
:10125000C3582900AE339B001B589B689847050074
:101260002800FEBD00236A46D3806988080A013839
:10127000062878D8FEF72EFF04202F7777525D00DE
:10128000AD239B00E358207C1B686A46911D98475C
:10129000E988002900D1B0E06B46DA88002A62D0E4
:1012A0000B1C914200D9131C6946CB8001009AB2F5
:1012B000200000F02CFA59E0AE23227C9B00E3587A
:1012C000002A06D19B6A6A46901D98470223437004
:1012D000DEE7DB6AF7E7AD23C9B29B00E3580529D7
:1012E00014D80800FEF7F6FE03080A0C0E105B681F
:1012F000002B38D0207CC8E79B68F9E7DB68F7E76C
:101300001B69F5E75B69F3E79B69F1E7DB69002B94
:1013100029D06A46207C06329847B9E7237C002B07
:1013200021D1AE236A469B00E358901D5B6B984722
:10133000AEE7237C002B16D1AE236A469B00E35810
:10134000901D1B6B98470723C1E7AB88002B0AD180
:10135000EB88002B07D16E887F2E04D8A725AD001F
:10136000635D032B04D12000FFF748FF002577E7DA
:10137000564BF1B2E154200000F012FB200000F0C7
:10138000F4F90223002E00D101236355EEE7A9787A
:101390004F4D2970012904D92000FFF72FFF0325A5
:1013A0005EE7A726B600A35DDFB2022B09D0032FAC
:1013B0001BD02000FFF722FF20002978FFF7C5FD92
:1013C000EDE7002919D0012120006160FFF7B2FD8F
:1013D00005002000002D03D0FFF710FFA7553FE7C1
:1013E00000F0C3F90323A355C0E7002909D1022364
:1013F0002000A3556160FFF7A8FD200000F0B5F9BB
:10140000B4E761680129F8D0C9B22000FFF79DFD5B
:10141000297820006160FFF78DFD051EEDD02000CA
:10142000FFF7ECFE61682000C9B2FFF78EFD0223D2
:10143000A35515E7EA88012A95D1A7239B00E15C13
:10144000CBB2022906D8002B8DD000232100A36047
:1014500008312DE7211D032B00D129E783E7A723BE
:101460009B00E35C013B022B00D97CE7EB88022B5D
:1014700000D078E7A9239B00E2580123002A00D07E
:10148000023321000222E3600C3111E76B88012B4B
:1014900003D1A9229200A350AFE7022B00D062E74C
:1014A000A822AB8892001B0AA354A6E7A7239B009F
:1014B000E35C013B022B00D955E76B88012B00D080
:1014C00054E7A92300229B00E25096E79E02000009
:1014D0009C08002060230A7870B5134004000D00BA
:1014E000520601D5402B25D1A7239B00E35C013B8D
:1014F000022B1FD82979200002291CD8FFF765FE8E
:1015000003000320002B14D1AE229200A25892684F
:10151000002A0ED0B5218900635020002900904791
:10152000EA88002A05D1002803D1200000F01DF927
:10153000002070BD2000FFF761FEF9E7602270B562
:101540000B780400134088880E0019009218203987
:10155000C5B211425AD0002B2FD17378012B41D044
:10156000032B22D0002B28D1A7239B00E35CDAB207
:10157000022B00D167E0032A1FD10F2314222B4036
:101580005343E318000600D46DE09B8C002B14D06D
:101590007F232B4001335343E6186B0600D06EE0E7
:1015A000002302223100336059E0A7239B00E35C53
:1015B000DAB2022B3CD0032A03D02000FFF71EFE34
:1015C0000EE07388002B08D16B0606D0F388002B41
:1015D00003D12900200000F0C0F9200000F0C5F878
:1015E000002070BDA7239B00E35CDAB2022B1FD062
:1015F000032AE2D17388002BF2D16B0603D02900B5
:10160000200000F0B2F9200000F0AFF8290020001F
:10161000FFF7DDFD0028E3D1B5239B00E0501C3B24
:10162000E3589B68002BDBD0310020009847D8E7B7
:101630006B06C2D02900200000F08FF98021200025
:1016400000F08BF9CCE76D06B7D121005531FF31A1
:10165000000601D54139FF39002302220B6020002A
:1016600000F055F8BCE76533FF331B88002BA4D08E
:101670007F232B405A435532FF32A6188DE72900AD
:10168000200000F07AF9002800D189E7012388E7DB
:101690000B7803704B784370CB788A781B02134326
:1016A00043804B790A791B0213438380CB798A7973
:1016B0001B021343C380704710B50400802100F063
:1016C0004CF90021200000F048F910BD70B504006D
:1016D0000D001600002811D0FEF7A6FD8022C0B232
:1016E00001304300904200D9530033802B70032314
:1016F00000216B70013B2278002A00D170BDEA54B2
:101700005A1CD2B202330134A954DBB2F3E71300FE
:10171000A52210B50224920084500A0083610021A2
:10172000C36100F045F9002010BD10B513000A0098
:10173000002100F03DF9002010BD1300A52210B5D6
:101740000324920084500200FC32D36513660A0021
:10175000002100F035F9002010BD10B513000A007B
:10176000002100F02DF9002010BDA52304229B00CC
:1017700010B5C25000231A00190000F019F900201A
:1017800010BDA52305229B0010B5C25000231A00EE
:10179000190000F015F9002010BD000037B5144BFA
:1017A000026804009A4222D1124D03E0A96803F0B6
:1017B00083FD0C352868431CF8D180210E4B89012C
:1017C000DA6B09300A43DA63DB6B00220B400193CA
:1017D0000121019B00F0F0F9082000F017FAE37AEC
:1017E000012B04D1054A0F3311680B43136037BD39
:1017F000005C00404CB60008001002409018024007
:10180000A72310B59B00C1184033C058FFF7A8FBB1
:1018100010BD28234B43C318FC33DA6EB72310B531
:101820009B00C058FFF7CCFB10BD28234B43C318C7
:101830009A6AB72310B59B00C058FFF703FC10BD90
:10184000B72310B59B00C058FFF7AEFC10BD70B5B4
:10185000B7250400AD004059FFF751FC6059012144
:10186000FFF780FC70BD0000B72310B504009B009B
:10187000C058FFF77BFCE37A002B04D00623024A12
:1018800011690B43136110BD00ED00E010B5C37A80
:101890000400002B06D000F03BF90621044A13692E
:1018A0008B431361B7239B00E058FFF76FFC10BD1B
:1018B00000ED00E010B5024801F07CFD10BDC0460F
:1018C000A008002070B5050000F010F90423124CA8
:1018D0002371124B200023600223E371FF33FF3397
:1018E000A3600023A381B7239B00E550143BEC5079
:1018F00001F0ECFC051E00D0FEE7094EB26831682D
:101900007368200092B289B2013502F08AFA0C366F
:10191000052DF3D1002070BDA0080020005C004020
:1019200048A60008B22310B59B00C05801F01EFD68
:10193000002010BD10B514001A002300B224A4002A
:10194000005902F083F9002010BDB22310B59B00AE
:10195000C05802F0A9F9002010BDB22310B59B00B9
:10196000C05802F002FA002010BDB22310B59B004F
:10197000C05802F028FA002010BDB2239B00C358C3
:1019800048B22822002805DA7F2001404A439B18EC
:10199000987D70474A439B185733FF331878F8E710
:1019A000B22310B59B00C05801F0F3FC002010BD1D
:1019B00010B5B224A400005902F0BFF9002010BDF8
:1019C00010B5B224A400005902F094F9002010BD13
:1019D000B22310B59B00C05802F0A7F910BD00005B
:1019E000122301480B8070474C010020042301485A
:1019F0000B8070474801002000487047800B002092
:101A000070B5002652008A188A4200D170BD050FB9
:101A1000ECB223003733092D00D8073B0B704E7012
:101A200000010231F0E700001A2310B50B800A4BC9
:101A300018680A4B1B68C01800280AD0084B0822F7
:101A40001C680849FFF7DCFF042220000649FFF765
:101A5000D7FF064810BDC0465075FF1F5875FF1FC1
:101A60005475FF1F30010020400100202E0100208E
:101A700010B5044C0A0021000348FFF727FE2000A0
:101A800010BDC046800C0020B8A5000810B50A00A3
:101A9000054C002805D105482100FFF717FE20005E
:101AA00010BD0348F8E7C046800C0020CBA5000815
:101AB000EBA5000810B5044C0A0021000348FFF70D
:101AC00005FE200010BDC046800C00200BA60008BB
:101AD00010B5044C0A0021000348FFF7F7FD200071
:101AE00010BDC046800C002027A6000810B5054C8C
:101AF000200003F063F80A2007F086FA200003F0C4
:101B000055F810BD005C004010B5FFF721F910BD7D
:101B100010B503F0BDFA06F0B3F910BD70B5104B67
:101B200005001978002901D1012070BDFA2080003C
:101B3000FEF7E4FA0B4C01002068FEF7DFFA00F034
:101B400081F8041EF0D1032DEED8020001202900F7
:101B5000404200F031F8044B20001D60E5E7C0462C
:101B600080010020C0010020840100208023084A59
:101B70005B00116810B50B4303201360FFF7CEFF25
:101B8000041E03D106F04AF9200010BD0124FBE732
:101B900000200240034A044B11681B785B18136055
:101BA0007047C046800D002080010020014B18685E
:101BB0007047C046800D002010B5FF2403220B00A3
:101BC00021000240D20091409B012340C943934031
:101BD00000280ADBC0240B4A800880008018A4007B
:101BE00002590A401343035110BD0F221040083818
:101BF000054A800880008018C26911401943C161FC
:101C0000F2E7C04600E100E000ED00E0002805DB5F
:101C10001F2318401E3B8340014A13607047C04693
:101C200000E100E0002809DB1F2318401E3B834031
:101C3000034AD367BFF34F8FBFF36F8F7047C04620
:101C400004E100E08022431E5204012093420DD2A1
:101C5000C021074A07485360036A09061B021B0A92
:101C60000B43036200200723906013607047C04657
:101C700010E000E000ED00E0704710B5FFF7FCFF5A
:101C800010BD704710B5041E01D1012010BD437F67
:101C9000DAB2002B02D10277FFF7F3FF022363775A
:101CA0002379002B1CD118212368124A5A619A68A3
:101CB0008A439A6062792368002A19D1013A602127
:101CC0001A619A6800208A4361690A4380219A60F8
:101CD0009A688A43A1690A439A6001236377D5E72A
:101CE0002000E268A16800F007F80028E2D0CCE705
:101CF0002269E4E7B71DC10430B5012504002800BE
:101D000029420ED01F23013B21D30800D84028428E
:101D1000F9D0102A14D005D8002A08D00120082AAA
:101D200012D030BD0120182AFBD1062BF9D820682B
:101D30004161182183688B43134383600020F0E7DF
:101D40000120072BF3D9ECE70F2BF0D9E9E70120AD
:101D5000102AE6D0E5D8002AE3D1E8E7F8B5012358
:101D6000411DCB77841DE27F022A03D00422C26387
:101D70001800F8BD0E2602681568B5431560156891
:101D8000466C9D4315603268114D2A403260026CEA
:101D9000104E15001C221540AB4077683B43736022
:101DA000C26C836C5A60036D002B06D01A68084D14
:101DB0002A401A60436D826D5A600123E377002345
:101DC000CB77836B002B00D098470020D1E7C0462B
:101DD000FFFEFFFF000002400630C07FC0B2704728
:101DE00070B5084D0400EB68184202D0E86003F0BB
:101DF000A1F92B69234203D020002C6103F09EF946
:101E000070BDC0460018024003689A69920701D568
:101E100000229A6201229969114202D199690A430A
:101E20009A61704730B5039C00682343120489050A
:101E30001A43890D054B45680A43640D234352003C
:101E40009D4352082A43426030BDC046FF63FF03F2
:101E500010B5436B1B4C0AB2A3421ED01A4CA342CE
:101E60001BD01A4CA34218D000239A4200DAB83390
:101E7000CA0701D5F22213438A0701D5F42213437E
:101E8000102906D19022134301680A6813430B609E
:101E900010BD2029F8D10B43F6E700239A4200DA5F
:101EA000B833CA0701D5F22213438A0701D5F422B9
:101EB00013431029E6D0202901D16022E3E740290D
:101EC000E9D0E1E7012D000831300008A52B00081A
:101ED000002310B5CA0708D5030041331A78282318
:101EE0001A40CA33282A00D1B03B8A0708D502001D
:101EF0002824413212782240A2420BD144221343BB
:101F000009B2002901DAB822134301680A689A432A
:101F10000A6010BDF422F2E7F7B5150002680E0062
:101F2000916910230F0004001F40002019420DD0BA
:101F30000700D3610190202123689A690A425FD18A
:101F4000002F2AD004270120019B1F4380268021D7
:101F5000802225687600AB69C9009200334252D0D6
:101F60000120EE6107430B424FD1134254D12000B0
:101F7000FFF74AFF6B682E4A012013406B60636CC9
:101F800020223B436364230041331A702200002364
:101F9000423240341370237048E0721C06D1202274
:101FA00099691142FCD02022DA61CBE7FFF7FEFDF0
:101FB000401BB04201D8002EBDD12200236842321E
:101FC000586811789A69C9B212040BD58022D201DF
:101FD000104207D1202905D059680A435A60FFF7FB
:101FE000E5FD0500202223689B691342A3D1FFF77A
:101FF000DDFD401B1928F5D92023012701939AE71D
:10200000002F9FD1CFE70B420CD00822174380222C
:10201000D200EA619B05AAD502231F43FF33FF3399
:10202000EB61A4E71342F7D10028A0D1FEBDC04662
:1020300000E800FEF8B504000D0016000227236832
:102040009B693B4201D0002021E0320029002000A2
:10205000FFF762FF002819D16B1CF0D0FFF7A6FD37
:10206000801BA84201D8002DE9D123689969022379
:102070000A001A401942E2D12021636C0B436364C9
:1020800023004034413319705A7022700120F8BD8A
:10209000F8B504000D0017001E0023689B692B4053
:1020A0005B1B5A425341BB4201D0002026E0310065
:1020B0002000069AFFF730FF00281ED1731CECD0D9
:1020C000FFF774FD069BC01AB04201D8002EE4D180
:1020D00023689B692B405B1B5A425341BB42DCD1B6
:1020E0002022636C13436364230041331A7022007F
:1020F000002342324034137023700120F8BDF8B53C
:1021000004000E001700202523689B692B4201D094
:1021100000201DE03A0031002000FFF7FDFE0028FE
:1021200015D1FFF743FDC01BB04201D8002EEBD103
:1021300023689B691A002A402B42E5D1636C2B432C
:1021400063642300403441331D705A7022700120B3
:10215000F8BD704770B504000120002C4ED025005A
:1021600041352B78DAB2002B05D123004033200013
:102170001A70FFF7EEFF242301212B702368E0681B
:102180001A68A6688A431A601D4962680A401A6183
:102190009A681C490A409A60012807D180221202DD
:1021A00032439A605A681848024009E084221202B9
:1021B00032439A600228F5D1802258681201024306
:1021C0005A605868114A02435A60DA6800200A408F
:1021D000DA60616922690A43A16909020A43DA6087
:1021E000216AE2690A431A60012219680A431A60E7
:1021F000202360642B7020634234207070BDC04681
:10220000FFFFFFF0FF7FFFFFFFF7FFFF00800002EF
:10221000704770B504000120002C13D02500242342
:1022200041352B7022681368834313602000FFF749
:10223000EFFF0020230060644233287020634034A5
:102240001870207070BD0000F0B5070087B00393D0
:102250000CAB029204CB41371B88049205933B7868
:1022600004000E000220202B08D1002A02D0059B7A
:10227000002B05D180239B006364012007B0F0BDD3
:10228000230040331A780220012AF7D001221A7065
:10229000FFF78CFC8021050000901923012220000B
:1022A0000902FFF7F5FE0028E7D121233B70270044
:1022B0001F3342373B70049B60646362059B60631D
:1022C00063856B461A7B4B4B3100009380232000C3
:1022D0005B04FFF7A7FD2A0020000E99FFF7AAFE76
:1022E000002829D1039A2368012A16D16A46127A56
:1022F0009A620022802120000E9B0095FFF7C8FE05
:10230000002819D1638DFF2B1AD88023628D9B047E
:1023100092B22285D2B2009017E0029A2000120AEF
:102320009A620E992A00FFF785FE002804D16B46B9
:1023300022681B7A9362DCE70023403423709CE719
:10234000FF22802322855B04009031002000FFF7EC
:1023500069FD2A0020000E99FFF76CFE002800D0CE
:102360008BE7636A22681978013391626362638D37
:10237000228D013B9BB26385013A638D92B2228527
:10238000002B16D0002A14D1802120000E9B00952E
:10239000FFF77EFE002800D06FE7638DFF2B21D969
:1023A000FF22802322855B04009031002000FFF78C
:1023B00039FD638D002BCCD12A0020000E99FFF748
:1023C0009EFE002800D058E7202123680A4DD961DD
:1023D0005A682A405A6023004034413319703870DB
:1023E00020704BE78023628D9B0492B22285D2B28B
:1023F0000090DAE70020008000E800FEF0B506005B
:1024000087B003930CAB029204CB41361B88049235
:102410000593337804000F000220202B08D1002AF6
:1024200002D0059B002B05D180239B006364012013
:1024300007B0F0BD230040331A780220012AF7D0FC
:1024400001221A70FFF7B2FB8021192300900500CA
:10245000012220000902FFF71BFE031EE7D1222202
:10246000327026001E3242363270049A6064626214
:10247000059A4E4962856A466063127B200000918E
:102480003900FFF7CFFC2A0020000E99FFF7D2FD9C
:1024900000282AD1039A2368012A17D16A46127AA2
:1024A0009A620022402120000E9B0095FFF7F0FD6C
:1024B00000281AD1628D3E4BFF2A1AD8628D92B243
:1024C000228500938023D2B29B0417E0029A200059
:1024D000120A9A620E992A00FFF7ACFD002804D177
:1024E0006B4622681B7A9362DBE70023403423703B
:1024F0009DE7FF222285009380235B0439002000A2
:10250000FFF790FC0022042120000E9B0095FFF7AE
:10251000BFFD002800D08AE723685A6A636A1A70F0
:10252000636A228D01336362638D013A013B9BB282
:102530006385638D92B22285002B16D0002A14D1B8
:10254000802120000E9B0095FFF7A2FD002800D0FF
:102550006DE7638DFF2B21D9FF22802322855B0449
:10256000009039002000FFF75DFC638D002BC9D17E
:102570002A0020000E99FFF7C2FD002800D056E780
:10258000202123680B4DD9615A682A405A602300E4
:102590004034413319703070207049E78023628DD8
:1025A0009B0492B22285D2B20090DAE7002000802C
:1025B0000024008000E800FEF0B5060085B002921D
:1025C000282201910393413633780400134093424B
:1025D00002D0012005B0F0BD019B002B02D0029B70
:1025E000002B03D180239B006364F2E7250025497B
:1025F0004035FFF76DFC2B780220012BEAD0012338
:102600002B703378204F2A2B16D101002000FFF7C2
:102610005FFC23681A6812040ED51A68E06B3A4012
:102620001A60002808D0194B8363FFF797FB002836
:1026300002D0E06B836B984729233370230020225C
:1026400042331A700023636423685A683A405A6020
:10265000019A6262029A6285628D2285039AE26221
:102660000B4A996962639A69D20303D50822114221
:1026700000D0DA610026200002492E70FFF7E8FB47
:102680003000A7E701800000FF7FFFFF5D320008F8
:1026900041310008F7B50700009228220193413725
:1026A0003B7804000D001340934201D00120FEBD91
:1026B000002902D0009B002B03D180239B00636480
:1026C000F4E7260024494036FFF702FC3378022065
:1026D000012BECD0012131703B78292B16D1200041
:1026E000FFF7F6FB23681A6852040FD51A681B49D6
:1026F000A06B0A401A60002808D0194B8363FFF7CB
:102700002DFB002802D0A06B836B98472A233B70D7
:102710002300202242331A70002363642368114986
:102720005A680A405A60009A65626285628D228505
:10273000019AE2620C4A996962639A69D20303D4EE
:102740000822114200D0DA610025200002493570CC
:10275000FFF77EFB2800AAE702800000FFBFFFFF13
:102760005D320008FF7FFFFF41310008020010B515
:10277000413211780223202908D180212633137099
:10278000034B09024363FFF763FB0023180010BDEE
:1027900041310008036810B599691A68436B002B32
:1027A00000D0984710BD70477047030070B50025F2
:1027B0002022060042331D70013B19780400403688
:1027C0001A7021290AD11123456303632039FFF7C9
:1027D0007FFB20003570FFF7E6FF70BD12234563D5
:1027E00003630221FFF774FB20003570FFF7DCFF65
:1027F000F3E700000100036810B5040000201A6828
:1028000042310870510418D51A6818490A401A60F4
:10281000230041331A78292A14D1013A1A7021234E
:10282000200023630121FFF753FB230000224033E4
:1028300020001A7006F05DFA10BD1204E8D51A687F
:102840000B49E3E71A782A2AF6D1023A1A702223B2
:10285000200023630221FFF73BFB230000224033CB
:1028600020001A7006F02FFAE6E7C046FFBFFFFF10
:10287000FF7FFFFF0300F7B5282241331B780400D8
:102880000168134093423CD1FE278D698E698B68A5
:10289000CA68ED030192C268360CED0F3E40022A71
:1028A00025D19B059A0D5B0F73401800062630401A
:1028B000334210D1A36C0133A364A36C022B09D162
:1028C0009B19A064CB6123004033187029002000BD
:1028D00006F0AEF9F7BD802120000902FFF7F8FAF3
:1028E0002300002240331A70019A3A40EEE780211B
:1028F0000902FFF7EDFA2300002240331A7032007C
:10290000E4E70823CB61002340342370E2E70000B2
:10291000184B10B5C362002302000363040020209B
:1029200041321070537004226363114212D0236845
:10293000596A636A1970636A01336362238D002BDD
:1029400008D0013B2385638D013B9BB26385636C9B
:102950001A43626420000849FFF7BAFA102223687C
:102960002000DA612300002240331A7006F095F946
:1029700010BDC0460000FFFF038000007047704795
:1029800070470100020010B541310C78002340323D
:10299000602C06D1403C0C7003631370FFF7F0FF0E
:1029A00010BD0363137006F0A8F9F9E770B50500D0
:1029B00000220400413542302B7802703A48283B0F
:1029C000E0626285626C0A436264022B2BD80321A9
:1029D0002000FFF77DFA28232B70344BA06B636334
:1029E000236B002840D01A001021113A8A433BD1B2
:1029F00023681A68520403D51A682D490A401A60E0
:102A0000FFF7EAF901282BD0A06B2A4B0022836341
:102A1000230040331A70FFF7A1F9002823D0A06BE0
:102A2000836B98471FE020002349FFF751FA2000ED
:102A3000FFF7EAF92B78602B10D020222A70236848
:102A4000996911420AD09969103A114204D0DA61A9
:102A5000616C0C3A0A4362642022DA610023BDE70C
:102A60002000FFF78EFF70BDE06B0028F8D0102229
:102A7000123B9343F4D123681A68120403D51A68F1
:102A80000E490A401A60FFF7A7F90128E8D0E06B69
:102A9000084B00228363230040331A70FFF75EF96E
:102AA0000028E0D0E06BBBE70000FFFF41310008E9
:102AB000FFBFFFFF5D32000803800000FF7FFFFFC4
:102AC000F7B52023050006684135F3612B78040033
:102AD0000F00212B2BD10121FFF7FAF911232363DA
:102AE00073682E4A13407360002363632C4BE362C8
:102AF00010231F4204D0F361626C0C3B13436364E8
:102B00002B78602B05D17F0703D5736ADBB2019365
:102B1000019B2000FFF778F9636C2A78602A01D0C6
:102B2000002B0CD02000616CFFF740FFF7BD2B7825
:102B3000222BD5D10221FFF7CBF91223CFE72A7838
:102B4000212A13D1013A2A70220021002363423244
:102B50001078403113700B70402803D12000FFF72C
:102B60000DFFE3E72000FFF71EFEDFE72A78222AA9
:102B7000DCD1023A2A70220021002363423210780D
:102B8000403113700B70402803D12000FFF7F7FE8F
:102B9000CCE72000FFF708FEC8E7C04600E800FECB
:102BA0000000FFFF73B5050040352B7804000220BC
:102BB000012B15D001232B700F33194211D01A426B
:102BC0000FD022682000D361626C0C3B134320219C
:102BD0006364FFF73DF92000FFF716F90020287025
:102BE00076BD0223194208D01A4206D02368226D0E
:102BF0009A6201235B422365F0E740260B063BD532
:102C0000324239D001212000FFF762F91021200063
:102C1000FFF71EF9638D002B29D0638DFF2B1BD985
:102C20000023FF22E16C22850093802389B25B049C
:102C30002000FFF7F7F8638D228D9B1A9BB2638506
:102C4000230041331A7823681968222A47D1802249
:102C500012020A431A60C1E70023628DE16C92B24E
:102C6000228500938023D2B289B29B04E0E7310031
:102C70002000FFF79BFEB1E7314233D0324231D022
:102C8000260001212000FFF723F941361021200002
:102C9000FFF7DEF83378223B5A425341174A9B0232
:102CA0009B18628DFF2A10D9FF22E16C22850093C8
:102CB000802389B25B042000FFF7B4F8638D228D76
:102CC0009B1A9BB263853278BDE7628DE16C92B24C
:102CD000228500938023D2B289B29B04EBE7802245
:102CE000D201B6E72023194200D177E71A4200D17A
:102CF00074E72000FFF7E4FE70E7C0460020008084
:102D0000F7B506004036337804000220012B15D0B9
:102D1000012333700F33194211D01A420FD02268A9
:102D20002000D361626C0C3B134320216364FFF7E6
:102D30008FF82000FFF768F800203070FEBD4023B8
:102D4000080641D51A423FD025682A689A432A606E
:102D5000638D002B2CD06968638D8905890DFF2B4D
:102D600018D9FF23238580235B040020278D009042
:102D7000FAB22000FFF756F8638DDB1B9BB2638528
:102D8000413423782A68222B0FD180231B0213435E
:102D90002B60D1E7638DE26A23851A4B9A4201D0FA
:102DA000E36AE2E780239B04DFE78023DB01EEE7B1
:102DB0006B689B0103D42000FFF7F7FCBCE74021C0
:102DC0002000FFF7F3FDB7E7194212D01A4210D0E6
:102DD000638D002BF3D1226853689B01ACD4E16A68
:102DE000084B9942E7D180235168DB010B435360C4
:102DF000A2E7202319429FD01A429DD02000FFF75E
:102E00005FFE99E70000FFFF70B5802503686D0045
:102E100099691A68294206D0140604D50124466C23
:102E200034434464DD618025ED00294206D0140658
:102E300004D50824466C34434464DD618024A40036
:102E4000214206D0120604D50222416C0A43426494
:102E5000DC610B23416C194201D0FFF7A7FD70BD67
:102E6000F7B506002022056841362B680400009360
:102E7000C36A0F0001933378EA61D8B2212B09D0DD
:102E8000223808280CD8FDF725F9680B0B0B0B0B23
:102E90006E05680020005E49FFF71AF821232363BE
:102EA00080226B68120213436B606B68594A2000E2
:102EB00013406B60FEF7A8FF009B5B0459D52B689D
:102EC000554A13402B60A36B002B03D01B685B6833
:102ED0009BB263857B0710D5636A6A6A1A70636A5E
:102EE00001336362238D002B05D0013B2385638D65
:102EF000013B9BB2638504239F43638D002B03D06A
:102F00000423626C1343636410231F4211D0009AA0
:102F10001A420ED0628D002A49D13378282B33D142
:102F20008023019A9B049A422ED139002000FFF79A
:102F3000EFFC2300002242331A70656C62639542F5
:102F400044D02000616CFFF731FD3378282B03D18A
:102F500039002000FFF7DCFCF7BD20002F49FEF709
:102F6000B7FF22239BE720002D49FEF7B1FF002386
:102F700095E78022009B12021342ABD02B68294AAE
:102F800013402B60E36B9FE73178102223682929D7
:102F90000BD125490198884207D02000DA61FEF75D
:102FA00033FF2000FFF726FCC3E7DA61C1E72268A0
:102FB000D3610423626C13436364019A1B4B1A426E
:102FC000B7D12000616CFFF7F1FCB2E72700E36A9C
:102FD000154A403793420CD02000FFF70BFC20230A
:102FE000114A2000E262337025633D7005F055FE02
:102FF000B2E7202332782000337025633D70222A07
:1030000002D105F060FEA7E705F073FEA4E7C04615
:103010000180000000E800FEFFBFFFFF028000000B
:1030200003800000FF7FFFFF0000FFFFFFFFFFFEA8
:10303000F8B5050040352B780400C66A0220012B44
:103040000BD001232B701F33194207D01A4205D031
:103050002000FFF705FF00202870F8BD102319425B
:103060005FD01A425DD0C0200002024256D0E36B0E
:1030700020009C466746A36B4130002F1DD1002BDA
:1030800005D0520403D51B685B68002B22D01022A8
:103090002368DA610423626C134363640078264B6F
:1030A000C0B21E42D7D12138092830D8FDF712F816
:1030B0002D342F2F2F2F2F2F2D341704DFD56746B8
:1030C0003F687F68002FDAD1002B03D0520401D56E
:1030D0001B685B680378282B07D180239B049E42E2
:1030E00003D12000FFF714FCB5E710220178236814
:1030F000DA612929AFD111498E42ACD02000FEF708
:1031000083FE2000FFF776FBA5E721232363200041
:10311000616CFFF74BFC9EE72223F7E72268D3613F
:1031200099E70823194296D01A4200D193E720006C
:10313000FFF7A0FB8FE7C046FFFFFFFE0000FFFF89
:1031400070B5050040352E780400C36A0220012EB8
:103150000BD0013828701F30014207D0024205D041
:103160002000FFF77DFE0020287070BD1020014276
:103170002FD002422DD0628D002A1CD12200413274
:103180001078282807D180208004834203D12000B2
:10319000FFF7BEFBE7E7102110782268D1612928EC
:1031A000E1D12C488342DED02000FEF72DFE200026
:1031B000FFF720FBD7E72268D0610422616C0A4345
:1031C0006264254A1342CED12000616CFFF7EEFB0A
:1031D000C9E70420014219D0024217D0628D002AAB
:1031E0000DD02268516A626A1170626A01326262AD
:1031F000228D013A2285628D013A92B26285628DFA
:10320000002AB0D1134A9342ADD0D0E70820014242
:1032100005D0024203D02000FFF72CFBA3E70220D9
:103220000142A0D002429ED0628D002A0DD0636A76
:1032300022681978013391626362638D013B9BB20E
:103240006385238D013B23858DE7034A134200D01C
:1032500089E7ACE70000FFFFFFFFFFFE806A10B5C3
:10326000836B002B01D000229A63C36B002B01D02B
:1032700000229A63FFF785FB10BD00000A2382B08D
:103280000193019B002B07D1054BC000C0180068BB
:103290008001800D02B07047019B013BF0E7C04602
:1032A000009800400A2382B00193019B002B07D1B4
:1032B000054BC000C01840688001800D02B0704707
:1032C000019B013BF0E7C0460098004073B5040045
:1032D0000120002C2FD0244D635DDAB2002B05D1E4
:1032E000A5239B002000E254FEF758FA0323635500
:1032F000206801F033FA002322001900012620790A
:103300001432984218D10021220008005532FF32B1
:103310008B421BD16B46227C1A70E3686168A268FD
:10332000206801F023FA0023637401336355237B83
:10333000012B15D0002076BD137001335670D1706B
:10334000116151619161DBB22832DAE7117001310C
:103350005070D070106150619061C9B22832D7E7C7
:10336000200000F076FDE5E79502000070B5A52588
:10337000AD00435D04000220012B09D001236355F9
:10338000206801F0E3F9206801F010FC002060558E
:1033900070BD70B5A525AD00435D04000220012B72
:1033A00007D0012363552068617401F0F9FB002008
:1033B000605570BDF0B5040087B0006801F006FCF0
:1033C000802580232D021B020540184200D1A5E371
:1033D000802226681202736C134201D107B0F0BD3F
:1033E0000F270F22736C1F40134200D07EE019009C
:1033F00001321140134221D13368D34A20001340D7
:103400008022120213433360237DD04ADB009B18D5
:103410001B68A26A9B019B0D2363D318A362FEF76E
:1034200004FA637C002BD3D0E26A2168002ACFD152
:103430008020637C0343CB646274C9E733688022D5
:103440001F001201174013421BD0AA235B00E05C4F
:10345000FFF728FF2200A7215532FF328900030021
:10346000D06161183000D28801F056FD2168B84B58
:103470000A6820001A40802313430B60FEF7C0F94E
:10348000A6E71B04A4D53268B14B25001A4080235F
:1034900013433360AA235B00E05CFFF703FF55355D
:1034A000FF35031EE8610ED0696900290BD030009A
:1034B000EA8801F031FD6B69EA6939009B18200048
:1034C0006B61FEF7A6F921680A68130500D57FE74E
:1034D000C0239B011A409A4200D179E70A689D48AF
:1034E000024053409C4A13430B6071E7BB000193B9
:1034F000F3181A6804926A46128A0292049A120415
:1035000072D528251968924A7D4311408022651999
:103510000A431A602B002A006133FF331B785532AF
:10352000FF32002B0DD11078FFF7BCFE0190002870
:103530003FD02B005B33FF33FC351A88E96E030064
:1035400034E0137803932B005833FF331B78022B9E
:1035500000D0C5E08023029ADB011A400592029A4E
:103560000398FC351A4200D18CE0FFF787FE2A6FE2
:1035700003000190824276D3121A2A6775D0029A0C
:10358000520608D5039A75499200B218106808408F
:10359000734901431160002B0BD028217943611836
:1035A0000A005D32FF32FC311288C96E300001F032
:1035B000B3FC2823190079436218FC32506F019D37
:1035C00040195067D06E4019D066106F002803D0A4
:1035D000926E954200D3A4E07B43E3185533FF334A
:1035E00020001978FEF715F923680193049B1B0648
:1035F00000D4EDE6019ABB00944663441A68524930
:103600000A40802109020A431A60282319007943DD
:103610006618F27D0392012A00D0C0E07A1C534361
:103620000022E3185A60731CDB7F934213D0049B83
:103630005B0600D496E0737D934279D1337D434A93
:10364000DB009B181A68920192091A60802219689F
:1036500012060A431A6028237B43E318197D2000D1
:10366000FEF7E3F8B4E600222A67039A394892008D
:10367000B21811680140802080014840364901435A
:1036800011607CE7FFF70EFE2A6F03000190824273
:1036900017D3121A2A6716D0029A520608D4039A30
:1036A0002E499200B218106808402D49014311605C
:1036B000002B00D17DE72821794361180A005F3291
:1036C00070E7059A2A67039A22489200B218116897
:1036D00001408020800148401F4901431160DBE721
:1036E000039B1E499B00F318186808401C490143BE
:1036F000196010788300F3181B685B0408D5FFF786
:10370000BDFD0190002800D153E72B005D3312E787
:10371000FFF7C8FD0190002800D14AE72B005F3376
:1037200009E75531FF312068611801F085FA5BE740
:10373000012B90D1337D054ADB009B181A6892B2A9
:103740001A601A6886E7C0460F8FFF07009800408E
:103750008F0FFF078FBFFF07808000008F8FFF074D
:10376000C0800000737D002B0DD1337DD64ADB0075
:103770009B185A68920192095A6080225968120671
:103780000A435A6067E7012B00D064E7337DCE4AD5
:10379000DB009B185A6892B25A605A68F1E780239E
:1037A0000498049A5B00357D18401A4219D1C64A24
:1037B000EB009B181B68F26A9B019B0D9A4202D892
:1037C0002900F0624BE7D21AF262B26A1431D218C1
:1037D000B262326B0198D3183363611801F02CFA8E
:1037E000F6E54023029A28001A400492029A1A42EF
:1037F00000D1CCE0FFF742FDF36A834214D80023E6
:10380000F362737D002B55D0012B66D1AE4AEB00DD
:103810009B181A6892B21A601A681A605A6892B2B3
:103820005A605A685A6058E01B1AF362029B5B04A4
:1038300077D4382328229C467A43A21894446346BE
:103840001B78012B28D1916A09189162336B1B18E0
:103850003363566B536A9E426DD3F61A5663282221
:103860007A43A218527D002A00D085E0964AED00E6
:10387000AD182A68920192092A60002B67D1802234
:103880002868120602432A6028227A43A218928BE3
:103890009BB2019801F09CF928237B43E3181A7D21
:1038A000236892009B1889491A680A4030215140C8
:1038B000874A33E08021844AEB009B181A68090686
:1038C000920192091A601A680A431A605A689201B2
:1038D00092095A605A6811435960039B022B0AD11E
:1038E000019AAB00D3181A6878490A402021514048
:1038F000774A0A431A6029002000FDF796FF029BD1
:103900005B0400D464E528237B43E3181A7D236815
:1039100092009B1819686F4A11406F4A0A431A6057
:1039200056E5019AAB00D31819686A4A11406A4AF1
:103930000A431A607DE7002E03D163461E70030020
:103940008DE70023604603705363330087E73E2B07
:1039500006D801205A08184012189206286891E7E4
:103960001F201840464270415A09121A28689206D0
:1039700002438020000685E7012A85D1524AED00E6
:10398000AD182A6892B22A6028681A047AE7FFF70D
:1039900089FC8022F36AD201834234D2049BF36211
:1039A000029B1340029328237B43E3185B7D002B8B
:1039B0006DD18021444AEB009B181A6809069201D8
:1039C00092091A601A680A431A605A6892019209A9
:1039D0005A605A6811435960039B022B0AD1019A1D
:1039E000AB00D3181A6839490A4020215140384A9F
:1039F0000A431A6029002000FDF717FF029B002BE5
:103A000000D0E5E47FE702991B1A1140F3620291AE
:103A1000002BC8D0029B002B08D1019AAB00D31811
:103A200019682C4A11402C4A0A431A60382328226C
:103A30009C467A43A218944463461B78012B00D01D
:103A40002AE7916A09189162336B1B183363566B2E
:103A5000536A9E422BD3F61A566328227A43A21841
:103A6000527D002A4FD1184AED00AD186A689201C4
:103A700092096A60002B31D18022686812060243E5
:103A80006A6028227A43A218D28B9BB201E7012BED
:103A9000A2D10D4AEB009B181A6892B21A601A68FC
:103AA0001A605A6892B25A605A685A6094E7002EB7
:103AB00003D163461E700300CFE7002353636246C1
:103AC00013703300C9E7C04600980040BF8FFF075E
:103AD000808000008F8FFF0780C000003E2B06D83B
:103AE00001205A081840121892066868C7E71F207C
:103AF0001840464270415A09121A686892060243F9
:103B000080200006BBE7012ABBD1474AED00AD1873
:103B10006A6892B26A6068681A04B0E743050CD517
:103B200022684249536C20000B405364FDF78FFE1E
:103B300029002000FFF72DFC50E4430405D522683E
:103B40003B49536C0B40536448E4802301009B01C4
:103B50001940184203D022683649536CF2E7C30477
:103B600018D5042023681A6C82431A641A6C001852
:103B700082431A64B3239B00E25C012A03D1200034
:103B8000E15400F079F92000FDF780FE22682A490F
:103B9000536CD7E7030511D508222368196C0A4333
:103BA0001A645A6C25490A405A640422196C0A4363
:103BB0001A642000FDF758FEFFF710FC03061FD51E
:103BC000B32023681E495A6C80000A405A64225C64
:103BD000002AEED1196C04320A431A640822196CC7
:103BE0000A4301211A643C2221545B6D20009B088A
:103BF0001340B4229200A35000F03EF9FFF7EEFB11
:103C0000830509D522680F49536C20000B4053648B
:103C1000FDF716FEFFF7E2FBC00501D4FFF7DEFB60
:103C200022680949536C8DE700980040FFFB0000B3
:103C3000FFBF0000FFDF0000FFEF0000FFF7000004
:103C40007FFF0000FFFD0000FFFE000070B50400D4
:103C500007200D000840282141436DB26618002D51
:103C60001ADA01251431611875755205520D087064
:103C70000A61CB70022B01D100230B71A525AD0089
:103C8000635D0220012B06D001236355206800F0FC
:103C900083FD0020605570BD002555315636FF313B
:103CA000FF3661183570E0E707220B000A40282133
:103CB00051435BB270B504004018002B12DA0123A7
:103CC000143161184375A5250A70AD00635D0220AB
:103CD000012B06D001236355206800F09BFE0020D5
:103CE000605570BD002355315630FF31FF306118EB
:103CF0000370E8E7F8B50724214021344C43061946
:103D00003700FC373B6733000025563355365534B2
:103D1000FF33FF36FF347D67FA661D70317001197D
:103D2000006800F089FF2800F8BD07230B40282118
:103D300059434018FC30406F704770B5072421404C
:103D400021344C4306193500B26201223835F36242
:103D50002A70002514343563317573637275011947
:103D6000006800F069FF280070BD072270B5037974
:103D700004000A400120934219D348B228230028A6
:103D800016DA5343190001201431E31861185875ED
:103D90000123A5258B700A70AD00625D02209A4256
:103DA00005D06355206800F0A5FE0020605570BD69
:103DB0004B4319000020E31855315633FF31FF33D0
:103DC00061181870E4E70B000F2270B50179040048
:103DD0001A40012091421BD3072228211A40514347
:103DE0005BB26018002B14DA01231431611843759B
:103DF0000025A5268D700A70B600A35D0220012B58
:103E000006D00123A355206800F092FE2800A55596
:103E100070BD002355315630FF31FF3061180370FB
:103E2000E6E730B528240D060BD5072529404C437D
:103E30001434001999B2002A07D10273C1800020FE
:103E400030BD4C435534FF34F3E7012283600273E5
:103E5000F5E702680300B520012110B58000B32406
:103E600019500020A4001855536D194302235165C1
:103E7000516D0B43536510BD704700000720382279
:103E8000174B10B519689C6889080140013114422C
:103E900007D11B68DB0A03401248D840FCF72EF913
:103EA00010BD98681040082812D09868104020284B
:103EB00010D09868104018280FD09868104010381B
:103EC000431E9841084B40421840064BC018E5E796
:103ED0000648E3E780200002E0E7FA20C001DDE7C2
:103EE00000100240006CDC02009423FD00366E01DD
:103EF00010B5FFF7C3FF064B064A9B681B051B0F57
:103F00009B009B581F221340D840034B186010BDE4
:103F10000010024084AB0008C001002010B5FFF77C
:103F2000E7FF054B054A9B685B045B0F9B009B58B2
:103F30001F221340D84010BD0010024064AB00089F
:103F40000368F7B5050000205B0623D580223D4CB1
:103F50005205E36B0700134207D1E36B01371343AC
:103F6000E363E36B13400193019BE16DC022080002
:103F70009200EB691040114244D10020E36D324AB7
:103F80001340EA691343E365012F03D1E36B2F4A22
:103F90001340E3632B68DA0706D5032429494A6DE9
:103FA000A243AC6822434A659A0706D52549284CA6
:103FB0004A6D2240EC6822434A659A0606D521499B
:103FC000AC694A6D9200920822434A651A0706D5E9
:103FD0001C49204C8A6D22406C6922438A655A072D
:103FE00006D518491C4C4A6D22402C6922434A656B
:103FF0001B0606D5E021134A13688B4369680B43FF
:104000001360FEBD98420CD0E36D0F4AE16D134082
:10401000802252020A43E265E26D10490A40E265DD
:10402000E365DB07A9D5FDF7C1FD06000222E36DBC
:104030001342A2D1FDF7BAFD094B801B9842F5D976
:104040000320A1E700100240FFFCFFFFFFFFFFEF8E
:10405000FFCFFFFFFFEFFFFFFF3FFFFFFFFFFEFF71
:104060008813000010B5402825D1C0215A4A890084
:10407000D36D0B40D16D890704D5802149008B4257
:1040800000D1A2E0116E890704D5802189008B42FE
:1040900000D19DE011688022080092021040114278
:1040A00023D04E4A4E489B185A1E93415B421840FB
:1040B0004C4BC01819E008280AD8002815D0013840
:1040C000072807D8FCF706F80847066106060679B0
:1040D00020282DD0002008E03F4A0321506D030026
:1040E0000B40084202D1FFF719FF10BD012B02D18E
:1040F000FFF7C4FEF9E7116849050ED5022B07D179
:1041000011680906490F01313748FBF7F7FFECE763
:10411000D06D8007C00FC003E7E7D16D0222080011
:1041200010401142E1D0033B5A425341D803DCE72F
:10413000294A536D9B0F9C07002BD9D0116880230F
:104140000800DB0018401942CFD0802300201B0656
:104150009C42CAD1D4E7204BC021586D890102008E
:104160000A400842BFD0802149018A42C0D01C6861
:1041700080212000C90008400C42B6D080210020D8
:1041800089018A42B1D11968BBE7134BC022596D2E
:104190001202080010401142AAD01A68520503D535
:1041A000802212029042EED0104BC018431E98415C
:1041B0000F4B404218400F4B7BE7074B986D0E4B5F
:1041C000C004C0171840084B73E7802000028CE73A
:1041D000FA20C00189E7C0460010024000FDFFFF41
:1041E000508EF4FFB0710B00006CDC020040FFFF4A
:1041F0008044FFFF80BB000000CA91FE8022104B6C
:104200005202D96A0A43DA62DA6A0E490A40DA626D
:1042100042680368134382681343C2681343026908
:1042200012041A43084B5A6019684269074812027F
:1042300001400A431A60602219680A431A607047F5
:1042400000100240FFFFFEFF006C0040FF80FFFFF8
:10425000704770470222036870B5DD681E6904006C
:1042600016420DD015420BD0053A1A61043202777E
:104270009B699B0700D17CE000F063FA0023237761
:1042800004231E4212D01D4210D005222368524240
:104290001A61073222779A69C0239B0020001A42D4
:1042A00000D16CE000F04DFA0023237708231E4272
:1042B0000FD01D420DD00922236852421A610D32DF
:1042C0002277DB6920009B075FD000F03AFA0023D9
:1042D000237710231E4211D01D420FD011222368D4
:1042E00052421A6119322277DA69C0239B002000FA
:1042F0001A4250D000F025FA0023237701231E42F2
:1043000008D01D4206D002222368524220001A61C2
:1043100000F0ECF982239B011E4207D02B0605D545
:104320002368204A20001A6100F0AFF8F30507D592
:104330002B0605D523681C4A20001A6100F0A6F858
:1043400040231E4208D01D4206D04122236852421B
:1043500020001A61FFF77DFF20231E4208D01D4276
:1043600006D021222368524220001A6100F08CF806
:1043700070BD00F0E2F92000FFF76AFF7EE700F071
:10438000DCF92000FFF764FF8EE700F0D6F920008B
:10439000FFF75EFF9BE700F0D0F92000FFF758FF22
:1043A000AAE7C0467FDFFFFFFFFEFFFF10B51B4CF3
:1043B0000368A04206D08022D205904202D0184A5B
:1043C000904208D1702293434A681343154A1A4019
:1043D000CB68134308E0144A9042F7D0134A904246
:1043E000F4D0134A9042F1D0802293434A69134398
:1043F0008A68C2620A688262A04205D00B4A904273
:1044000002D00B4A904201D10A690263042201687A
:104410000A43026001224261036010BD002C01408A
:1044200000040040FFFCFFFF00200040004401406A
:104430000048014070B504000120002C23D0250065
:104440003D352B78DAB2002B05D123003C33200018
:104450001A7001F009F902232B702068211DFFF763
:10446000A5FF2200012300204832137047340A3A86
:10447000137053709370D370137153719371D37120
:10448000137223702B7070BD70477047704783683C
:1044900010B50400002B05D003220100984700232B
:1044A000A360E36010BD836810B50400002B02D048
:1044B000032201009847200010BD00000F4A0300AE
:1044C000904212D08022D205904210D00C4A022095
:1044D00093420BD00B4A0130934207D00A4A9342D1
:1044E00007D00A4A934206D0FEE700207047012019
:1044F000FCE70420FAE70520F8E7C046002C01405D
:1045000000040040002000400044014000480140F9
:1045100070B504000069FFF7D1FF050020001030DE
:1045200000F0FEFF0022084BAD00EA5026002500F7
:10453000E260B4356436B54204D0103D2800FFF780
:10454000B2FFF8E7200070BD840D002070B50400B4
:1045500008000E00FFF7B2FF2569002D00D0FEE72E
:1045600022001F4B0C328000C25023002C332661E6
:104570001D702600203325636563A563E56325640C
:104580006564A5641D705D7003231036E36530001B
:104590002566E46000F062FF20006430FFF777FFDB
:1045A00020007430FFF773FF20008430FFF76FFFA7
:1045B00020009430FFF76BFF2000A430FFF767FF67
:1045C000084B3000E361802325606560A56065616C
:1045D000A56125626562A362FFF72CFF70BDC0462E
:1045E000840D0020FFFF0000044B10B51868002860
:1045F00002D00430FFF72EFE10BDC046840D00200F
:1046000010B5FFF7F1FF10BD044B10B55868002836
:1046100002D00430FFF71EFE10BDC046840D0020FE
:10462000044B10B59868002802D00430FFF712FE42
:1046300010BDC046840D0020044B10B5D86800287A
:1046400002D00430FFF706FE10BDC046840D0020E6
:10465000044B10B51869002802D00430FFF7FAFDAA
:1046600010BDC046840D0020044B10B558690028C9
:1046700002D00430FFF7EEFD10BDC046840D0020CF
:1046800010B50C220021040004F091FF002320004B
:10469000E36010BDF8B50500070004000E006435A6
:1046A000B43728001035FFF7EBFFBD42F9D10023E6
:1046B000310020002361FFF749FF2000F8BD836827
:1046C00010B5002B01D104F0CBFCC368984710BD96
:1046D00010B5002800D1FEE700F0BEFE0068C36EF2
:1046E000002B02D06430FFF7EAFF10BD10B5FFF7D2
:1046F000EFFF10BD030010B5002800D1FEE7007FDA
:104700000138072812D8FBF7E5FC04161112111125
:1047100011140124180000F09FFE24010068643485
:1047200000198368002B01D0FFF7C9FF10BD0324D7
:10473000F0E70424EEE70224ECE710B5FFF7DAFF18
:1047400010BD10B5FFF7D6FF10BD0000030000201C
:10475000014A58641A64704780BF0000036C024A23
:1047600013400364002070477F40FFFF84B010B502
:104770000492012202640593036C040093430364D2
:10478000036C03919340D34003640020606410BC29
:1047900008BC04B018470000F7B501240E78A44601
:1047A000B300C3181A6891480240C878032807D894
:1047B000FBF790FC023A373480248446A40022435D
:1047C0008B4C8C4D22431A601A688B4F2A4032431F
:1047D00022431A60F200D2190F7B002F66D1CF88D6
:1047E000BF08BF0001974F78002F25D01168019EA8
:1047F000090C090411601168314311601A685206EE
:1048000004D519687D4A29400A431A607C4D012865
:104810000CD02022196829404A4009E0C024E40055
:1048200022430024A446CBE78024F8E71A682A40F4
:1048300022431A606046FEBD5068019F000C0004D0
:1048400050605068096938435060506880018009A1
:104850005060002905D1506880210906014351604C
:1048600009E03E2918D80127480839404018516806
:104870008006084350601A68520404D51968614ADA
:1048800029400A431A60604A19681140C022002E6C
:1048900000D080229201BFE71F27480939404F42CC
:1048A0007941401A516880060843D5E702284CD167
:1048B0001F68564E2F403E431E601668360C360465
:1048C00016600E891768B608B6003E431660566833
:1048D000360C360456604E895768B608B6003E431B
:1048E00056604E78371E464E5CD180271868FF010F
:1048F000384204D01F6843482F4038431860186876
:10490000400604D5186805403C48284318601068E4
:10491000096980018009106000291BD1802011687D
:10492000000601431160516889018909516051688D
:10493000084350601968344A1140C02292014A402D
:1049400022431A601A68324072E71E68304F3E40B8
:104950002643B1E73E290FD801204D0801406D18CC
:104960001068A906084310605068800180095060F3
:10497000506801435160DDE71F25480929404D4239
:1049800069418025401A1168800601432D0629439C
:1049900011605168890189095160516808430543D4
:1049A0005560C7E780211A68C9010A4204D0196816
:1049B000144A29400A431A601A68520604D5196835
:1049C0000E4A29400A431A6001280BD02022196898
:1049D00031404A4022431A601A680B490A40144386
:1049E0001C6027E71A683240F4E7C0468F89FF074A
:1049F000808000008F8FFF0700980040C08000007B
:104A0000BF8FFF0780C000008FBFFF0780810000BD
:104A10008F8EFF07F0B50B780A7B9B00C0184E788D
:104A20002E4B002A1CD10268002E0ED0520605D54E
:104A300001682B4A11402B4A0A43026002682A4946
:104A40000A40134303600020F0BD520405D50168FD
:104A5000234A1140254A0A43026002682449EFE7CD
:104A600080211F4A204D224CC901002E1AD1066810
:104A70000E4204D006681D491640314301600168AA
:104A8000184E490603D501681140314301600168A1
:104A90000A4016430660026822401A430260026818
:104AA0002A40CEE70768114E0F4203D0016811403B
:104AB000314301600168490604D507680949174078
:104AC0003943016001680A401643066002682A40C3
:104AD0001A43026002682240B3E7C04680800000AB
:104AE0008F8FFF07C0800000BF8FFF0780C00000CE
:104AF0008FBFFF070B780B4A9B00C0184B780168EB
:104B0000002B07D0084B194010234B401343036080
:104B100000207047054B194080235B014B401A432E
:104B20000260F5E780800000BF8FFF078FBFFF079F
:104B30000B789B00C0184B78002B15D003685B06E0
:104B400005D50268104B1A40104B13430360CB7815
:104B5000012B07D00E4A0368134020225A400D4B08
:104B6000134303600020704703685B0405D50268A7
:104B7000054B1A40084B13430360084A036813406F
:104B8000C0229201EAE7C0468F8FFF07C080000075
:104B9000BF8FFF078080000080C000008FBFFF072D
:104BA000002901D18023C364002070478023826DD7
:104BB0001B0213438365002070470000836D024A87
:104BC0001340836500207047FF7FFFFF406C7047F4
:104BD000F7B50324D81C23401C00651EAC41800897
:104BE000001B144C0D00121904000192002C0FD16F
:104BF000002B0CD02500800009184E5DEF00BE4050
:104C000001353443AEB2B342F7D112181460F7BD88
:104C10002E78013CB44667466E7836023E43AF7844
:104C20003F043743EE78043536063E43019F40C7C4
:104C30000197DBE700980040F0B54A7806000C00C9
:104C40000B7B85B0012A00D00DE10F698D69BD4253
:104C500000D93D0062690192002B1ED1ABB2E288FF
:104C600030000199FFF7B4FF2378A24ADB009B18BC
:104C70001A682D0492B21A601A6815431D602378D1
:104C80009D4A9B00F3181968114030224A409B4905
:104C90000A431A60002005B0F0BD20789549C20093
:104CA0005218E1788000236A3018022900D0C3E04E
:104CB0009F4200D3B0E00768914B1F40914B3B43AC
:104CC0000360236A5B1B2362036840209C466146A5
:104CD00003400293019B5F192B040393ABB2014283
:104CE0004ED05068290480B250605068084350602C
:104CF000628901993000FFF76BFF236A2169002266
:104D000067618B4201D95A1B2B0022626278002A0C
:104D10002AD122787749D20052181168890189096D
:104D20001160002B0BD1802110680906014311602E
:104D300022899BB239003000FFF74AFF9FE73E2BE4
:104D400006D8012059081840091889061068EDE7AF
:104D50001F201840454268415909091A1068890600
:104D6000014380200006E1E7012AE1D12278614970
:104D7000D2005218116889B2116010681904D5E781
:104D80001068290480B210601068084310602289FE
:104D900030000199FFF71CFF236A22696761934283
:104DA00002D95B1B02932B00029A22626278002ACE
:104DB00026D122784F49D2005218516889018909B9
:104DC0005160002B07D180215068090601435160D2
:104DD00062899BB2AEE73E2B06D8012059081840E5
:104DE000091889065068F1E71F20184045426841BC
:104DF0005909091A50688906014380200006E5E731
:104E0000012AE5D122783B49D2005218516889B273
:104E1000516050681904D9E705683B4F37493D4058
:104E20000D430560106880B21060156818042843AF
:104E300010609BB222890DE05B1B236200682F0487
:104E4000ABB2400608D5506880B250605068384315
:104E50005060628901996EE7106880B21060106836
:104E600038431060E6E7002B26D10B788A699B0057
:104E7000C318002A1BD1CA78002A18D1204A196801
:104E80001140204A0A431A60A369226993422ED92D
:104E90009B1AA36123781D4A9B00F61833681340C0
:104EA000C02292015A40154B13433360F2E6164A72
:104EB00019681140114AE5E7CB78022B13D1CB6971
:104EC000002BE7D00B78124A9B00C1180B681340E7
:104ED000934201D0002BDDD10A68094B1A400D4BDB
:104EE00013430B60D6E70120012B00D0D3E600234B
:104EF000CFE7C04600980040BF8FFF0780800000CA
:104F00008F8FFF07808100008F8EFF078FBFFF0705
:104F100040400000C0800000F7B50324D81C2340A7
:104F2000134C800812191C00651EAC41001B0D00BB
:104F300004000192002C0ED1002B0BD0800012181F
:104F4000091810680500E200D5400D550134A2B2E1
:104F50009342F7D1F7BD019F013C40CF0197370A3B
:104F60002E706F70370C360EAF70EE700435E1E7BF
:104F700000980040014B18607047C046C0010020F7
:104F800010B504F077F810BD10B504F07DF810BD31
:104F90007FB5002304280FD81B4B5A6BFBF79AF8F8
:104FA000030F18212A0001210A435A635B6B0B404F
:104FB0000193019BA023DB05180007B000BD02216F
:104FC0000A435A635B6B0B400293029B0F4BF3E760
:104FD00004210A435A635B6B0B400393039B0C4B06
:104FE000EAE708210A435A635B6B0B400493049B76
:104FF000084BE1E720210A435A635B6B0B400593A2
:10500000059B054BD8E7C046001002400004005045
:1050100000080050000C005000140050F7B5134B6E
:1050200006001900019300F0FBF9FFF747FA104F53
:105030008400E359002B0DD1B420FFF7A1FF0199A3
:105040000500300000F0ECF901002800FFF722FB1A
:10505000E3591D603B591C68002C06D02000FFF767
:1050600057FAB4212000FFF78FFFF7BD84A6000890
:10507000840D002010B5FCF799FD10BD704710B5E8
:10508000FCF788FDFCF7F9FDFFF7F8FF10BD70474E
:1050900080210E4B4905DA6B84B00A43DA63DA6B80
:1050A0000A4001210192019A1A6C0A431A641A6C8F
:1050B0000A4080210292029A9A6B49010A439A633C
:1050C0009B6B0B400393039B04B07047001002409E
:1050D00010B5FFF7DDFFFCF749FDFFF7D8FF02F041
:1050E000CFFE0348FCF7CEFDFCF70EFD10BDC04619
:1050F0009C01002010B50C220021040004F057FA96
:105100000023E36010BD0000002310B501280BD17F
:1051100014225A43064B101DC0188168002902D082
:105120009B181B69984710BD01334008DBB2EDE7BF
:105130009C0D002010B5FFF7E7FF10BD10B5FFF77D
:10514000E3FF10BD10B50120FCF74AFE0220FCF77A
:1051500047FE10BD10B50420FCF742FE0820FCF706
:105160003FFE10BD70B50C241025A8B2013CFCF721
:1051700037FE6D00002CF8D170BD0000F8B5052594
:105180002E4F2F4C38002570FFF7B4FF2D4E25759C
:105190003000FFF7AFFF2300013528332A481D7088
:1051A000FFF7A8FF230029483C331D70FFF7A2FF3B
:1051B00023000135503326481D706037FFF79AFFF2
:1051C00024483D706036FFF795FF23483570FFF7A0
:1051D00091FF230021488C331D70FFF78BFF2300C4
:1051E0001F48A0331D70FFF785FF23001D48B4330F
:1051F0001D70FFF77FFF23001B48C8331D70FFF7AA
:1052000079FF23001948DC331D70FFF773FF23007B
:105210002600F03316481D70FF36FFF76BFF154868
:105220007571FFF767FF14487576FFF763FF9623E4
:1052300012485B00E554FFF75DFFF8BDA00D0020AC
:105240009C0D0020B40D0020C80D0020DC0D0020B6
:10525000F00D0020040E0020180E00202C0E00205F
:10526000400E0020540E0020680E00207C0E00200E
:10527000900E0020A40E0020B80E0020CC0E0020BE
:1052800010B5044C143C201DFFF70DF9024B9C4255
:10529000F8D110BDDC0E00209C0D0020431C04D171
:1052A00000207047834204D00C310B685A1CF9D19E
:1052B000F6E70120F5E70000F7B506000C00431CF7
:1052C00000D1FEE70F23474A0340C0B29B000938D4
:1052D0009D5803280ED8FAF7FDFE02222C31C02378
:1052E00032009B011A409A4204D108233E4A1168B9
:1052F0000B4313603006000FFFF74AFE290003221C
:10530000030069434A438068D743104398600720ED
:10531000204003283FD8FAF7DDFE553F1549C0234A
:1053200032009B011A409A42E4D12F4A102311689F
:10533000DEE708212C4A13688B43DAE72A4A10215A
:105340001368F9E76004420E01924A009446019AFC
:105350007F2A0ED0360711D50F265A6A10002A0A66
:10536000524352435643B04306000198424316430A
:105370005E6260461A683A40024310E01A6A0F26DD
:1053800010000A004A435643B043060001984243C6
:1053900016431E62EDE7FEE71A683A400A431A60B8
:1053A000220712D55A682A435A6002E0186802435D
:1053B0001A60A406A40F012C0AD0022C0DD0DA68C2
:1053C0003A4008E01A683A40F2E75A68AA43EBE725
:1053D000DA683A400A43DA60F7BDDA6849003A40D1
:1053E000F8E7C04624AB00080000014010B5431C9C
:1053F00007D110BD834203D18968FFF75DFFF8E74D
:105400000C310B685A1CF5D1FEE70B685A1C01D110
:10541000002002E0834201D1486870470C31F4E774
:10542000002310B5421C02D0FFF7EFFF0300180065
:1054300010BD030008008B4205D0002B03D0424270
:1054400050414042184070478022024B12059A603A
:105450007047C04600ED00E00438704703682A4AF0
:1054600086B093420BD18021284B09011A6C0A4364
:105470001A641B6C0B400093009B06B0704780229F
:10548000D205934209D10121204BDA6B0A43DA633A
:10549000DB6B0B400193019BEFE71D4A934209D15F
:1054A00002211A4BDA6B0A43DA63DB6B0B4002937F
:1054B000029BE2E7174A93420AD18021134B09026B
:1054C0001A6C0A431A641B6C0B400393039BD4E7CA
:1054D000114A93420AD180210C4B89021A6C0A436B
:1054E0001A641B6C0B400493049BC6E70B4A93425F
:1054F000C3D18021054BC9021A6C0A431A641B6C84
:105500000B400593059BB8E7002C014000100240BA
:1055100000040040002000400044014000480140D9
:105520000368174A934205D1164A1749136C0B407A
:10553000136408E08022D205934205D10121114A6B
:10554000D36B8B43D3637047104A934203D10D4A08
:105550000221D36BF5E70E4A934203D1094A0D4964
:10556000136CE4E70C4A934203D1064A0B49136CCF
:10557000DDE70B4A9342E6D1024A0A49136CD6E7AB
:10558000002C014000100240FFF7FFFF0004004024
:1055900000200040FF7FFFFF00440140FFFFFDFFB0
:1055A00000480140FFFFFBFF0300421C18D0114AD6
:1055B000904218D00CD8104A904216D00F4A1320AF
:1055C00093420CD080220438D205934207D0FEE7E4
:1055D0000B4A90420BD00B4A16209342F7D17047EA
:1055E0000E204042FBE70D20F9E71020F7E71520D9
:1055F000F5E7C046002C01400004004000200040B8
:1056000000440140004801400300421C18D0114AE8
:10561000904218D00CD8104A904216D00F4A13204E
:1056200093420CD080220438D205934207D0FEE783
:105630000B4A90420BD00B4A16209342F7D1704789
:105640000E204042FBE70E20F9E71020F7E7152077
:10565000F5E7C046002C0140000400400020004057
:105660000044014000480140F8B50400FFF7F6FE91
:105670002068FFF799FF226DE16CFCF79DFA206826
:10568000FFF792FFFCF7C2FA27683800FFF7BCFF6C
:1056900005003800FFF788FF854209D02800226DF9
:1056A000E16CFCF789FA2068FFF7AEFFFCF7AEFA71
:1056B000F8BD000003000A4910B50868C318EFF3ED
:1056C0000882934205D90C220120064B40421A6001
:1056D00010BD054A054C121B9342F4D20B60F7E74C
:1056E000C4010020641600200060002000040000B7
:1056F00001204042704780239B0100204B6070478F
:10570000012070470020704700207047FEE700002E
:1057100016220120014B40421A6070476416002097
:105720000120704703000020172B03D80248D840FF
:10573000012318407047C04601188000024BC34047
:1057400018000123184070470881100070B514003C
:105750000D000122210002F0B7FA20001821FAF70B
:1057600053FD28000122C9B202F0AEFA70BDC36A2F
:10577000CA6A934203D093428041404270470389F2
:105780000A899342F7D1C388CA889342F3D1C0896A
:10579000CB8998428041F0E7F0B50027AFB0029086
:1057A0000191160039002C2217A8169703F0FFFE6E
:1057B0002C22390023A8229703F0F9FE0298B84260
:1057C00000D183E00198B84200D17FE03000BE42B2
:1057D00000D17BE05022390003F0E9FE019B16ACBA
:1057E0001B787370019B5B78B370019B9B78F3709F
:1057F00022AB05932500FBB20137049303976B4658
:105800001B7B0093302B00D062E0059B01340133F9
:105810000593302FEED1002307936B461B7F182191
:1058200018000093FAF76AFC1821C3B2009811938C
:10583000FAF7EAFCCBB204930C3BDBB21593049B62
:10584000119A0C33DBB2149301239340DBB2139310
:10585000079B0E93013307930A9328226B469B18EC
:105860001F78302F00D07AE0079B302BD5D1F588F8
:1058700037893433A0327A436B439B18FA22F18A7A
:1058800092004A439B183222F489F18B62439B18A1
:10589000F362338C7278C918738C89B29C463300DA
:1058A00028331B780093B38B708BC01880B2092308
:1058B000002809D10133002906D1002D00D1EDE1E6
:1058C000033B002F00D1FFE1012033702FB0F0BD6A
:1058D000009A0499029802F0E0F9049A009906905F
:1058E000029802F0DAF9019B079003331800009A3E
:1058F0000499089302F0D1F9069B002807D1049A75
:105900000099089802F0C9F9069B002810D0002BD6
:1059100002D0079B002B1BD1059B059A1B7803998E
:1059200001331370039B22AA9B5C01338B540AE062
:10593000002B08D0079B002B05D023780133237060
:105940006B7801336B70039B01350133039356E78A
:105950002378013323706B7801336B70DCE73A00F6
:105960000099029802F099F93900009A0890109075
:10597000029802F092F9029C3A002134FF34009917
:1059800009900C90200002F088F9009A39000390E9
:10599000200002F082F9089B04005A1E9341099AE4
:1059A0005B421A40019B0D92DD1C3A0028000099D1
:1059B00002F073F901230B93002805D13900280068
:1059C000009A02F06AF90B90019D3A002435FF35E8
:1059D0002800009902F061F901230F93002805D1F6
:1059E00039002800009A02F058F90F90039B182103
:1059F0002343DBB238000393FAF706FC0E9BCCB2CC
:105A0000172B43D8019B5B78049A0592002B05D095
:105A1000149B05930B2A01D9159B0593019B172F06
:105A200037D85B780694002B09D023000C3BDBB2FF
:105A300006930B2C03D823000C33DBB20693019B97
:105A40001B78023B022B2BD80B9B002B28D1AD4D92
:105A5000059A2B00D340012213421CD00698FFF771
:105A600061FE002804D1069BDD4001231D4217D0B2
:105A7000039B002B21D0089B099A934202D0338AC2
:105A800001333382738A0133738214E0019B9B7864
:105A9000BAE79B78C6E70598FFF744FE0028E2D1F5
:105AA000089B099A934200D17BE0338A0133338209
:105AB000039B002BE6D101230AE0089B099A93423D
:105AC00068D10D9B002B02D00F9B002B65D10023CA
:105AD00004981293FFF726FE051E04D02000FFF75E
